{
  "abi": [
    {
      "anonymous": false,
      "inputs": [
        {
          "indexed": true,
          "internalType": "address",
          "name": "owner",
          "type": "address"
        },
        {
          "indexed": true,
          "internalType": "address",
          "name": "approved",
          "type": "address"
        },
        {
          "indexed": true,
          "internalType": "uint256",
          "name": "tokenId",
          "type": "uint256"
        }
      ],
      "name": "Approval",
      "type": "event"
    },
    {
      "anonymous": false,
      "inputs": [
        {
          "indexed": true,
          "internalType": "address",
          "name": "owner",
          "type": "address"
        },
        {
          "indexed": true,
          "internalType": "address",
          "name": "operator",
          "type": "address"
        },
        {
          "indexed": false,
          "internalType": "bool",
          "name": "approved",
          "type": "bool"
        }
      ],
      "name": "ApprovalForAll",
      "type": "event"
    },
    {
      "anonymous": false,
      "inputs": [
        {
          "indexed": true,
          "internalType": "address",
          "name": "from",
          "type": "address"
        },
        {
          "indexed": true,
          "internalType": "address",
          "name": "to",
          "type": "address"
        },
        {
          "indexed": true,
          "internalType": "uint256",
          "name": "tokenId",
          "type": "uint256"
        }
      ],
      "name": "Transfer",
      "type": "event"
    },
    {
      "inputs": [],
      "name": "FIFTH_PERIOD",
      "outputs": [
        {
          "internalType": "uint8",
          "name": "",
          "type": "uint8"
        }
      ],
      "stateMutability": "view",
      "type": "function"
    },
    {
      "inputs": [],
      "name": "FIRST_PERDIOD",
      "outputs": [
        {
          "internalType": "uint8",
          "name": "",
          "type": "uint8"
        }
      ],
      "stateMutability": "view",
      "type": "function"
    },
    {
      "inputs": [],
      "name": "FOURTH_PERIOD",
      "outputs": [
        {
          "internalType": "uint8",
          "name": "",
          "type": "uint8"
        }
      ],
      "stateMutability": "view",
      "type": "function"
    },
    {
      "inputs": [],
      "name": "SECOND_PERDIOD",
      "outputs": [
        {
          "internalType": "uint8",
          "name": "",
          "type": "uint8"
        }
      ],
      "stateMutability": "view",
      "type": "function"
    },
    {
      "inputs": [],
      "name": "THIRD_PERIOD",
      "outputs": [
        {
          "internalType": "uint8",
          "name": "",
          "type": "uint8"
        }
      ],
      "stateMutability": "view",
      "type": "function"
    },
    {
      "inputs": [],
      "name": "amountOfOwnerDeposited",
      "outputs": [
        {
          "internalType": "uint256",
          "name": "",
          "type": "uint256"
        }
      ],
      "stateMutability": "view",
      "type": "function"
    },
    {
      "inputs": [
        {
          "internalType": "address",
          "name": "to",
          "type": "address"
        },
        {
          "internalType": "uint256",
          "name": "tokenId",
          "type": "uint256"
        }
      ],
      "name": "approve",
      "outputs": [],
      "stateMutability": "nonpayable",
      "type": "function"
    },
    {
      "inputs": [
        {
          "internalType": "address",
          "name": "owner",
          "type": "address"
        }
      ],
      "name": "balanceOf",
      "outputs": [
        {
          "internalType": "uint256",
          "name": "",
          "type": "uint256"
        }
      ],
      "stateMutability": "view",
      "type": "function"
    },
    {
      "inputs": [
        {
          "internalType": "uint8",
          "name": "",
          "type": "uint8"
        },
        {
          "internalType": "string",
          "name": "",
          "type": "string"
        }
      ],
      "name": "countOfReserves",
      "outputs": [
        {
          "internalType": "uint8",
          "name": "",
          "type": "uint8"
        }
      ],
      "stateMutability": "view",
      "type": "function"
    },
    {
      "inputs": [
        {
          "internalType": "uint256",
          "name": "tokenId",
          "type": "uint256"
        }
      ],
      "name": "getApproved",
      "outputs": [
        {
          "internalType": "address",
          "name": "",
          "type": "address"
        }
      ],
      "stateMutability": "view",
      "type": "function"
    },
    {
      "inputs": [
        {
          "internalType": "address",
          "name": "owner",
          "type": "address"
        },
        {
          "internalType": "address",
          "name": "operator",
          "type": "address"
        }
      ],
      "name": "isApprovedForAll",
      "outputs": [
        {
          "internalType": "bool",
          "name": "",
          "type": "bool"
        }
      ],
      "stateMutability": "view",
      "type": "function"
    },
    {
      "inputs": [],
      "name": "name",
      "outputs": [
        {
          "internalType": "string",
          "name": "",
          "type": "string"
        }
      ],
      "stateMutability": "view",
      "type": "function"
    },
    {
      "inputs": [],
      "name": "ownerDepositFound",
      "outputs": [],
      "stateMutability": "payable",
      "type": "function"
    },
    {
      "inputs": [
        {
          "internalType": "uint256",
          "name": "tokenId",
          "type": "uint256"
        }
      ],
      "name": "ownerOf",
      "outputs": [
        {
          "internalType": "address",
          "name": "",
          "type": "address"
        }
      ],
      "stateMutability": "view",
      "type": "function"
    },
    {
      "inputs": [
        {
          "internalType": "uint256",
          "name": "_tokenId",
          "type": "uint256"
        }
      ],
      "name": "receivePerson",
      "outputs": [],
      "stateMutability": "nonpayable",
      "type": "function"
    },
    {
      "inputs": [
        {
          "internalType": "uint8",
          "name": "perdiodToReserve",
          "type": "uint8"
        },
        {
          "internalType": "uint8",
          "name": "day",
          "type": "uint8"
        },
        {
          "internalType": "uint8",
          "name": "month",
          "type": "uint8"
        }
      ],
      "name": "reserve",
      "outputs": [
        {
          "internalType": "uint256",
          "name": "",
          "type": "uint256"
        }
      ],
      "stateMutability": "payable",
      "type": "function"
    },
    {
      "inputs": [
        {
          "internalType": "address",
          "name": "from",
          "type": "address"
        },
        {
          "internalType": "address",
          "name": "to",
          "type": "address"
        },
        {
          "internalType": "uint256",
          "name": "tokenId",
          "type": "uint256"
        }
      ],
      "name": "safeTransferFrom",
      "outputs": [],
      "stateMutability": "nonpayable",
      "type": "function"
    },
    {
      "inputs": [
        {
          "internalType": "address",
          "name": "from",
          "type": "address"
        },
        {
          "internalType": "address",
          "name": "to",
          "type": "address"
        },
        {
          "internalType": "uint256",
          "name": "tokenId",
          "type": "uint256"
        },
        {
          "internalType": "bytes",
          "name": "data",
          "type": "bytes"
        }
      ],
      "name": "safeTransferFrom",
      "outputs": [],
      "stateMutability": "nonpayable",
      "type": "function"
    },
    {
      "inputs": [
        {
          "internalType": "address",
          "name": "operator",
          "type": "address"
        },
        {
          "internalType": "bool",
          "name": "approved",
          "type": "bool"
        }
      ],
      "name": "setApprovalForAll",
      "outputs": [],
      "stateMutability": "nonpayable",
      "type": "function"
    },
    {
      "inputs": [
        {
          "internalType": "uint256",
          "name": "_tokenId",
          "type": "uint256"
        },
        {
          "internalType": "enum TastyToken.ReservStatus",
          "name": "_status",
          "type": "uint8"
        }
      ],
      "name": "setStatus",
      "outputs": [],
      "stateMutability": "nonpayable",
      "type": "function"
    },
    {
      "inputs": [
        {
          "internalType": "bytes4",
          "name": "interfaceId",
          "type": "bytes4"
        }
      ],
      "name": "supportsInterface",
      "outputs": [
        {
          "internalType": "bool",
          "name": "",
          "type": "bool"
        }
      ],
      "stateMutability": "view",
      "type": "function"
    },
    {
      "inputs": [],
      "name": "symbol",
      "outputs": [
        {
          "internalType": "string",
          "name": "",
          "type": "string"
        }
      ],
      "stateMutability": "view",
      "type": "function"
    },
    {
      "inputs": [
        {
          "internalType": "uint256",
          "name": "",
          "type": "uint256"
        }
      ],
      "name": "tokenMetadata",
      "outputs": [
        {
          "internalType": "uint8",
          "name": "period",
          "type": "uint8"
        },
        {
          "internalType": "uint8",
          "name": "day",
          "type": "uint8"
        },
        {
          "internalType": "uint8",
          "name": "month",
          "type": "uint8"
        },
        {
          "internalType": "uint256",
          "name": "amountDeposited",
          "type": "uint256"
        },
        {
          "internalType": "enum TastyToken.ReservStatus",
          "name": "status",
          "type": "uint8"
        }
      ],
      "stateMutability": "view",
      "type": "function"
    },
    {
      "inputs": [
        {
          "internalType": "uint256",
          "name": "tokenId",
          "type": "uint256"
        }
      ],
      "name": "tokenURI",
      "outputs": [
        {
          "internalType": "string",
          "name": "",
          "type": "string"
        }
      ],
      "stateMutability": "view",
      "type": "function"
    },
    {
      "inputs": [
        {
          "internalType": "address",
          "name": "from",
          "type": "address"
        },
        {
          "internalType": "address",
          "name": "to",
          "type": "address"
        },
        {
          "internalType": "uint256",
          "name": "tokenId",
          "type": "uint256"
        }
      ],
      "name": "transferFrom",
      "outputs": [],
      "stateMutability": "nonpayable",
      "type": "function"
    }
  ],
  "bytecode": {
    "object": "0x608060405266038d7ea4c6800060085567016345785d8a0000600955600f600a556000600b553480156200003257600080fd5b50604080518082018252600a8152692a30b9ba3caa37b5b2b760b11b602080830191825283518085019094526004845263151512d560e21b9084015281519192916200008191600091620000a0565b50805162000097906001906020840190620000a0565b50505062000182565b828054620000ae9062000146565b90600052602060002090601f016020900481019282620000d257600085556200011d565b82601f10620000ed57805160ff19168380011785556200011d565b828001600101855582156200011d579182015b828111156200011d57825182559160200191906001019062000100565b506200012b9291506200012f565b5090565b5b808211156200012b576000815560010162000130565b600181811c908216806200015b57607f821691505b6020821081036200017c57634e487b7160e01b600052602260045260246000fd5b50919050565b611f8e80620001926000396000f3fe6080604052600436106101665760003560e01c806391dca3aa116100d1578063b88d4fde1161008a578063d896dd6411610064578063d896dd6414610471578063e985e9c514610491578063f844ead6146104da578063ffe085b8146104ef57600080fd5b8063b88d4fde14610411578063bb324fba14610431578063c87b56dd1461045157600080fd5b806391dca3aa1461036057806395d89b411461036857806397605ba51461037d578063a22cb465146103c9578063a5fab077146103e9578063b4b45e62146103fe57600080fd5b806342842e0e1161012357806342842e0e146102635780634660cbcd146102835780636352211e146102985780636914db60146102b85780636a7ec34e1461031c57806370a082311461034057600080fd5b806301ffc9a71461016b57806306fdde03146101a0578063081812fc146101c2578063095ea7b3146101fa57806321923e881461021c57806323b872dd14610243575b600080fd5b34801561017757600080fd5b5061018b610186366004611908565b610504565b60405190151581526020015b60405180910390f35b3480156101ac57600080fd5b506101b5610556565b604051610197919061197d565b3480156101ce57600080fd5b506101e26101dd366004611990565b6105e8565b6040516001600160a01b039091168152602001610197565b34801561020657600080fd5b5061021a6102153660046119c5565b61060f565b005b34801561022857600080fd5b50610231600081565b60405160ff9091168152602001610197565b34801561024f57600080fd5b5061021a61025e3660046119ef565b610729565b34801561026f57600080fd5b5061021a61027e3660046119ef565b61075a565b34801561028f57600080fd5b50610231600181565b3480156102a457600080fd5b506101e26102b3366004611990565b610775565b3480156102c457600080fd5b5061030b6102d3366004611990565b600d6020526000908152604090208054600182015460029092015460ff80831693610100840482169362010000900482169290911685565b604051610197959493929190611a41565b34801561032857600080fd5b50610332600b5481565b604051908152602001610197565b34801561034c57600080fd5b5061033261035b366004611a90565b6107d5565b61021a61085b565b34801561037457600080fd5b506101b5610874565b34801561038957600080fd5b50610231610398366004611b48565b600c602090815260009283526040909220815180830184018051928152908401929093019190912091525460ff1681565b3480156103d557600080fd5b5061021a6103e4366004611baa565b610883565b3480156103f557600080fd5b50610231600481565b61033261040c366004611be6565b610892565b34801561041d57600080fd5b5061021a61042c366004611c29565b610b90565b34801561043d57600080fd5b5061021a61044c366004611990565b610bc8565b34801561045d57600080fd5b506101b561046c366004611990565b610e70565b34801561047d57600080fd5b5061021a61048c366004611ca5565b610f80565b34801561049d57600080fd5b5061018b6104ac366004611cce565b6001600160a01b03918216600090815260056020908152604080832093909416825291909152205460ff1690565b3480156104e657600080fd5b50610231600381565b3480156104fb57600080fd5b50610231600281565b60006001600160e01b031982166380ac58cd60e01b148061053557506001600160e01b03198216635b5e139f60e01b145b8061055057506301ffc9a760e01b6001600160e01b03198316145b92915050565b60606000805461056590611d01565b80601f016020809104026020016040519081016040528092919081815260200182805461059190611d01565b80156105de5780601f106105b3576101008083540402835291602001916105de565b820191906000526020600020905b8154815290600101906020018083116105c157829003601f168201915b5050505050905090565b60006105f3826110b7565b506000908152600460205260409020546001600160a01b031690565b600061061a82610775565b9050806001600160a01b0316836001600160a01b03160361068c5760405162461bcd60e51b815260206004820152602160248201527f4552433732313a20617070726f76616c20746f2063757272656e74206f776e656044820152603960f91b60648201526084015b60405180910390fd5b336001600160a01b03821614806106a857506106a881336104ac565b61071a5760405162461bcd60e51b815260206004820152603d60248201527f4552433732313a20617070726f76652063616c6c6572206973206e6f7420746f60448201527f6b656e206f776e6572206f7220617070726f76656420666f7220616c6c0000006064820152608401610683565b6107248383611119565b505050565b6107333382611187565b61074f5760405162461bcd60e51b815260040161068390611d3b565b610724838383611205565b61072483838360405180602001604052806000815250610b90565b6000818152600260205260408120546001600160a01b0316806105505760405162461bcd60e51b8152602060048201526018602482015277115490cdcc8c4e881a5b9d985b1a59081d1bdad95b88125160421b6044820152606401610683565b60006001600160a01b03821661083f5760405162461bcd60e51b815260206004820152602960248201527f4552433732313a2061646472657373207a65726f206973206e6f7420612076616044820152683634b21037bbb732b960b91b6064820152608401610683565b506001600160a01b031660009081526003602052604090205490565b34600b600082825461086d9190611d9e565b9091555050565b60606001805461056590611d01565b61088e338383611369565b5050565b600060095434111580156108a857506008543410155b6109005760405162461bcd60e51b8152602060048201526024808201527f596f757220616d6f756e74206973206f757473696465206f6620746865206c696044820152636d69747360e01b6064820152608401610683565b60048460ff1611156109545760405162461bcd60e51b815260206004820152601f60248201527f54686520706572696f64206973206f7574206f6620746865206c696d697473006044820152606401610683565b60006109628460ff16611437565b61096e8460ff16611437565b60405160200161097f929190611db6565b60408051601f1981840301815282825260ff88166000908152600c602052919091209092506014916109b2908490611de5565b9081526040519081900360200190205460ff161115610a1e5760405162461bcd60e51b815260206004820152602260248201527f5468657265206973206e6f74206d6f726520737061636520746f207265736572604482015261766560f01b6064820152608401610683565b60ff85166000908152600c6020526040908190209051610a3f908390611de5565b90815260405190819003602001902054610a5d9060ff166001611e01565b60ff86166000908152600c6020526040908190209051610a7e908490611de5565b908152604051908190036020019020805460ff9290921660ff199092169190911790556000610aac60075490565b9050610ab833826114ca565b6040518060a001604052808760ff1681526020018660ff1681526020018560ff16815260200134815260200160006001811115610af757610af7611a2b565b90526000828152600d602090815260409182902083518154928501519385015160ff908116620100000262ff0000199582166101000261ffff1990951691909216179290921792909216178155606082015160018083019190915560808301516002830180549192909160ff1916908381811115610b7757610b77611a2b565b0217905550506007805460010190555095945050505050565b610b9a3383611187565b610bb65760405162461bcd60e51b815260040161068390611d3b565b610bc284848484611655565b50505050565b6000818152600d60209081526040808320815160a081018352815460ff80821683526101008204811695830195909552620100009004841692810192909252600180820154606084015260028201549293919260808501921690811115610c3157610c31611a2b565b6001811115610c4257610c42611a2b565b905250805190915060ff16600003610c9c5760405162461bcd60e51b815260206004820152601b60248201527f54686520746f6b656e20496420646f6573206e6f7420657869737400000000006044820152606401610683565b600081608001516001811115610cb457610cb4611a2b565b14610d015760405162461bcd60e51b815260206004820152601c60248201527f546865207265736572766520697320616c72656164792074616b656e000000006044820152606401610683565b600160808201526060810151600090610d1990611688565b60008481526002602052604081205460608501519293506001600160a01b031691610d45908490611d9e565b90506000826001600160a01b03168260405160006040518083038185875af1925050503d8060008114610d94576040519150601f19603f3d011682016040523d82523d6000602084013e610d99565b606091505b5050905080610de15760405162461bcd60e51b81526020600482015260146024820152732330b4b632b2103a379039b2b7321022ba3432b960611b6044820152606401610683565b6000868152600d602090815260409182902087518154928901519389015160ff908116620100000262ff0000199582166101000261ffff19909516919092161792909217929092161781556060860151600180830191909155608087015160028301805489949360ff1991909116908381811115610e6157610e61611a2b565b02179055505050505050505050565b6060610e7b826110b7565b60008281526006602052604081208054610e9490611d01565b80601f0160208091040260200160405190810160405280929190818152602001828054610ec090611d01565b8015610f0d5780601f10610ee257610100808354040283529160200191610f0d565b820191906000526020600020905b815481529060010190602001808311610ef057829003601f168201915b505050505090506000610f2b60408051602081019091526000815290565b90508051600003610f3d575092915050565b815115610f6f578082604051602001610f57929190611db6565b60405160208183030381529060405292505050919050565b610f78846116a5565b949350505050565b6000828152600d60209081526040808320815160a081018352815460ff80821683526101008204811695830195909552620100009004841692810192909252600180820154606084015260028201549293919260808501921690811115610fe957610fe9611a2b565b6001811115610ffa57610ffa611a2b565b90525090506080810182600181111561101557611015611a2b565b9081600181111561102857611028611a2b565b9052506000838152600d602090815260409182902083518154928501519385015160ff908116620100000262ff0000199582166101000261ffff19909516919092161792909217929092161781556060820151600180830191909155608083015160028301805485949360ff19919091169083818111156110ab576110ab611a2b565b02179055505050505050565b6000818152600260205260409020546001600160a01b03166111165760405162461bcd60e51b8152602060048201526018602482015277115490cdcc8c4e881a5b9d985b1a59081d1bdad95b88125160421b6044820152606401610683565b50565b600081815260046020526040902080546001600160a01b0319166001600160a01b038416908117909155819061114e82610775565b6001600160a01b03167f8c5be1e5ebec7d5bd14f71427d1e84f3dd0314c0f7b2291e5b200ac8c7c3b92560405160405180910390a45050565b60008061119383610775565b9050806001600160a01b0316846001600160a01b031614806111da57506001600160a01b0380821660009081526005602090815260408083209388168352929052205460ff165b80610f785750836001600160a01b03166111f3846105e8565b6001600160a01b031614949350505050565b826001600160a01b031661121882610775565b6001600160a01b03161461123e5760405162461bcd60e51b815260040161068390611e26565b6001600160a01b0382166112a05760405162461bcd60e51b8152602060048201526024808201527f4552433732313a207472616e7366657220746f20746865207a65726f206164646044820152637265737360e01b6064820152608401610683565b826001600160a01b03166112b382610775565b6001600160a01b0316146112d95760405162461bcd60e51b815260040161068390611e26565b600081815260046020908152604080832080546001600160a01b03199081169091556001600160a01b0387811680865260038552838620805460001901905590871680865283862080546001019055868652600290945282852080549092168417909155905184937fddf252ad1be2c89b69c2b068fc378daa952ba7f163c4a11628f55a4df523b3ef91a4505050565b816001600160a01b0316836001600160a01b0316036113ca5760405162461bcd60e51b815260206004820152601960248201527f4552433732313a20617070726f766520746f2063616c6c6572000000000000006044820152606401610683565b6001600160a01b03838116600081815260056020908152604080832094871680845294825291829020805460ff191686151590811790915591519182527f17307eab39ab6107e8899845ad3d59bd9653f200f220920489ca2b5937696c31910160405180910390a3505050565b6060600061144483611719565b600101905060008167ffffffffffffffff81111561146457611464611abc565b6040519080825280601f01601f19166020018201604052801561148e576020820181803683370190505b5090508181016020015b600019016f181899199a1a9b1b9c1cb0b131b232b360811b600a86061a8153600a850494508461149857509392505050565b6001600160a01b0382166115205760405162461bcd60e51b815260206004820181905260248201527f4552433732313a206d696e7420746f20746865207a65726f20616464726573736044820152606401610683565b6000818152600260205260409020546001600160a01b0316156115855760405162461bcd60e51b815260206004820152601c60248201527f4552433732313a20746f6b656e20616c7265616479206d696e746564000000006044820152606401610683565b6000818152600260205260409020546001600160a01b0316156115ea5760405162461bcd60e51b815260206004820152601c60248201527f4552433732313a20746f6b656e20616c7265616479206d696e746564000000006044820152606401610683565b6001600160a01b038216600081815260036020908152604080832080546001019055848352600290915280822080546001600160a01b0319168417905551839291907fddf252ad1be2c89b69c2b068fc378daa952ba7f163c4a11628f55a4df523b3ef908290a45050565b611660848484611205565b61166c848484846117f1565b610bc25760405162461bcd60e51b815260040161068390611e6b565b6000612710600a548361169b9190611ebd565b6105509190611edc565b60606116b0826110b7565b60006116c760408051602081019091526000815290565b905060008151116116e75760405180602001604052806000815250611712565b806116f184611437565b604051602001611702929190611db6565b6040516020818303038152906040525b9392505050565b60008072184f03e93ff9f4daa797ed6e38ed64bf6a1f0160401b83106117585772184f03e93ff9f4daa797ed6e38ed64bf6a1f0160401b830492506040015b6d04ee2d6d415b85acef81000000008310611784576d04ee2d6d415b85acef8100000000830492506020015b662386f26fc1000083106117a257662386f26fc10000830492506010015b6305f5e10083106117ba576305f5e100830492506008015b61271083106117ce57612710830492506004015b606483106117e0576064830492506002015b600a83106105505760010192915050565b60006001600160a01b0384163b156118e757604051630a85bd0160e11b81526001600160a01b0385169063150b7a0290611835903390899088908890600401611efe565b6020604051808303816000875af1925050508015611870575060408051601f3d908101601f1916820190925261186d91810190611f3b565b60015b6118cd573d80801561189e576040519150601f19603f3d011682016040523d82523d6000602084013e6118a3565b606091505b5080516000036118c55760405162461bcd60e51b815260040161068390611e6b565b805181602001fd5b6001600160e01b031916630a85bd0160e11b149050610f78565b506001949350505050565b6001600160e01b03198116811461111657600080fd5b60006020828403121561191a57600080fd5b8135611712816118f2565b60005b83811015611940578181015183820152602001611928565b83811115610bc25750506000910152565b60008151808452611969816020860160208601611925565b601f01601f19169290920160200192915050565b6020815260006117126020830184611951565b6000602082840312156119a257600080fd5b5035919050565b80356001600160a01b03811681146119c057600080fd5b919050565b600080604083850312156119d857600080fd5b6119e1836119a9565b946020939093013593505050565b600080600060608486031215611a0457600080fd5b611a0d846119a9565b9250611a1b602085016119a9565b9150604084013590509250925092565b634e487b7160e01b600052602160045260246000fd5b60ff86811682528581166020830152841660408201526060810183905260a0810160028310611a8057634e487b7160e01b600052602160045260246000fd5b8260808301529695505050505050565b600060208284031215611aa257600080fd5b611712826119a9565b803560ff811681146119c057600080fd5b634e487b7160e01b600052604160045260246000fd5b600067ffffffffffffffff80841115611aed57611aed611abc565b604051601f8501601f19908116603f01168101908282118183101715611b1557611b15611abc565b81604052809350858152868686011115611b2e57600080fd5b858560208301376000602087830101525050509392505050565b60008060408385031215611b5b57600080fd5b611b6483611aab565b9150602083013567ffffffffffffffff811115611b8057600080fd5b8301601f81018513611b9157600080fd5b611ba085823560208401611ad2565b9150509250929050565b60008060408385031215611bbd57600080fd5b611bc6836119a9565b915060208301358015158114611bdb57600080fd5b809150509250929050565b600080600060608486031215611bfb57600080fd5b611c0484611aab565b9250611c1260208501611aab565b9150611c2060408501611aab565b90509250925092565b60008060008060808587031215611c3f57600080fd5b611c48856119a9565b9350611c56602086016119a9565b925060408501359150606085013567ffffffffffffffff811115611c7957600080fd5b8501601f81018713611c8a57600080fd5b611c9987823560208401611ad2565b91505092959194509250565b60008060408385031215611cb857600080fd5b82359150602083013560028110611bdb57600080fd5b60008060408385031215611ce157600080fd5b611cea836119a9565b9150611cf8602084016119a9565b90509250929050565b600181811c90821680611d1557607f821691505b602082108103611d3557634e487b7160e01b600052602260045260246000fd5b50919050565b6020808252602d908201527f4552433732313a2063616c6c6572206973206e6f7420746f6b656e206f776e6560408201526c1c881bdc88185c1c1c9bdd9959609a1b606082015260800190565b634e487b7160e01b600052601160045260246000fd5b60008219821115611db157611db1611d88565b500190565b60008351611dc8818460208801611925565b835190830190611ddc818360208801611925565b01949350505050565b60008251611df7818460208701611925565b9190910192915050565b600060ff821660ff84168060ff03821115611e1e57611e1e611d88565b019392505050565b60208082526025908201527f4552433732313a207472616e736665722066726f6d20696e636f72726563742060408201526437bbb732b960d91b606082015260800190565b60208082526032908201527f4552433732313a207472616e7366657220746f206e6f6e20455243373231526560408201527131b2b4bb32b91034b6b83632b6b2b73a32b960711b606082015260800190565b6000816000190483118215151615611ed757611ed7611d88565b500290565b600082611ef957634e487b7160e01b600052601260045260246000fd5b500490565b6001600160a01b0385811682528416602082015260408101839052608060608201819052600090611f3190830184611951565b9695505050505050565b600060208284031215611f4d57600080fd5b8151611712816118f256fea26469706673582212200d28e3308a220c77c3680ff9acd7a4e7c356e6bea2263806178098da7da0537064736f6c634300080d0033",
    "linkReferences": {}
  },
  "methodIdentifiers": {
    "FIFTH_PERIOD()": "a5fab077",
    "FIRST_PERDIOD()": "21923e88",
    "FOURTH_PERIOD()": "f844ead6",
    "SECOND_PERDIOD()": "4660cbcd",
    "THIRD_PERIOD()": "ffe085b8",
    "amountOfOwnerDeposited()": "6a7ec34e",
    "approve(address,uint256)": "095ea7b3",
    "balanceOf(address)": "70a08231",
    "countOfReserves(uint8,string)": "97605ba5",
    "getApproved(uint256)": "081812fc",
    "isApprovedForAll(address,address)": "e985e9c5",
    "name()": "06fdde03",
    "ownerDepositFound()": "91dca3aa",
    "ownerOf(uint256)": "6352211e",
    "receivePerson(uint256)": "bb324fba",
    "reserve(uint8,uint8,uint8)": "b4b45e62",
    "safeTransferFrom(address,address,uint256)": "42842e0e",
    "safeTransferFrom(address,address,uint256,bytes)": "b88d4fde",
    "setApprovalForAll(address,bool)": "a22cb465",
    "setStatus(uint256,uint8)": "d896dd64",
    "supportsInterface(bytes4)": "01ffc9a7",
    "symbol()": "95d89b41",
    "tokenMetadata(uint256)": "6914db60",
    "tokenURI(uint256)": "c87b56dd",
    "transferFrom(address,address,uint256)": "23b872dd"
  },
  "id": 24
}