{
  "abi": [
    {
      "inputs": [],
      "stateMutability": "nonpayable",
      "type": "constructor"
    },
    {
      "anonymous": false,
      "inputs": [
        {
          "indexed": true,
          "internalType": "address",
          "name": "owner",
          "type": "address"
        },
        {
          "indexed": true,
          "internalType": "address",
          "name": "approved",
          "type": "address"
        },
        {
          "indexed": true,
          "internalType": "uint256",
          "name": "tokenId",
          "type": "uint256"
        }
      ],
      "name": "Approval",
      "type": "event"
    },
    {
      "anonymous": false,
      "inputs": [
        {
          "indexed": true,
          "internalType": "address",
          "name": "owner",
          "type": "address"
        },
        {
          "indexed": true,
          "internalType": "address",
          "name": "operator",
          "type": "address"
        },
        {
          "indexed": false,
          "internalType": "bool",
          "name": "approved",
          "type": "bool"
        }
      ],
      "name": "ApprovalForAll",
      "type": "event"
    },
    {
      "anonymous": false,
      "inputs": [
        {
          "indexed": true,
          "internalType": "address",
          "name": "from",
          "type": "address"
        },
        {
          "indexed": true,
          "internalType": "address",
          "name": "to",
          "type": "address"
        },
        {
          "indexed": true,
          "internalType": "uint256",
          "name": "tokenId",
          "type": "uint256"
        }
      ],
      "name": "Transfer",
      "type": "event"
    },
    {
      "inputs": [],
      "name": "FIFTH_PERIOD",
      "outputs": [
        {
          "internalType": "uint8",
          "name": "",
          "type": "uint8"
        }
      ],
      "stateMutability": "view",
      "type": "function"
    },
    {
      "inputs": [],
      "name": "FIRST_PERDIOD",
      "outputs": [
        {
          "internalType": "uint8",
          "name": "",
          "type": "uint8"
        }
      ],
      "stateMutability": "view",
      "type": "function"
    },
    {
      "inputs": [],
      "name": "FOURTH_PERIOD",
      "outputs": [
        {
          "internalType": "uint8",
          "name": "",
          "type": "uint8"
        }
      ],
      "stateMutability": "view",
      "type": "function"
    },
    {
      "inputs": [],
      "name": "SECOND_PERDIOD",
      "outputs": [
        {
          "internalType": "uint8",
          "name": "",
          "type": "uint8"
        }
      ],
      "stateMutability": "view",
      "type": "function"
    },
    {
      "inputs": [],
      "name": "THIRD_PERIOD",
      "outputs": [
        {
          "internalType": "uint8",
          "name": "",
          "type": "uint8"
        }
      ],
      "stateMutability": "view",
      "type": "function"
    },
    {
      "inputs": [],
      "name": "amountOfOwnerDeposited",
      "outputs": [
        {
          "internalType": "uint256",
          "name": "",
          "type": "uint256"
        }
      ],
      "stateMutability": "view",
      "type": "function"
    },
    {
      "inputs": [
        {
          "internalType": "address",
          "name": "to",
          "type": "address"
        },
        {
          "internalType": "uint256",
          "name": "tokenId",
          "type": "uint256"
        }
      ],
      "name": "approve",
      "outputs": [],
      "stateMutability": "nonpayable",
      "type": "function"
    },
    {
      "inputs": [
        {
          "internalType": "address",
          "name": "owner",
          "type": "address"
        }
      ],
      "name": "balanceOf",
      "outputs": [
        {
          "internalType": "uint256",
          "name": "",
          "type": "uint256"
        }
      ],
      "stateMutability": "view",
      "type": "function"
    },
    {
      "inputs": [
        {
          "internalType": "uint8",
          "name": "",
          "type": "uint8"
        },
        {
          "internalType": "string",
          "name": "",
          "type": "string"
        }
      ],
      "name": "countOfReserves",
      "outputs": [
        {
          "internalType": "uint8",
          "name": "",
          "type": "uint8"
        }
      ],
      "stateMutability": "view",
      "type": "function"
    },
    {
      "inputs": [
        {
          "internalType": "uint256",
          "name": "tokenId",
          "type": "uint256"
        }
      ],
      "name": "getApproved",
      "outputs": [
        {
          "internalType": "address",
          "name": "",
          "type": "address"
        }
      ],
      "stateMutability": "view",
      "type": "function"
    },
    {
      "inputs": [
        {
          "internalType": "address",
          "name": "owner",
          "type": "address"
        },
        {
          "internalType": "address",
          "name": "operator",
          "type": "address"
        }
      ],
      "name": "isApprovedForAll",
      "outputs": [
        {
          "internalType": "bool",
          "name": "",
          "type": "bool"
        }
      ],
      "stateMutability": "view",
      "type": "function"
    },
    {
      "inputs": [],
      "name": "name",
      "outputs": [
        {
          "internalType": "string",
          "name": "",
          "type": "string"
        }
      ],
      "stateMutability": "view",
      "type": "function"
    },
    {
      "inputs": [],
      "name": "ownerDepositFound",
      "outputs": [],
      "stateMutability": "payable",
      "type": "function"
    },
    {
      "inputs": [
        {
          "internalType": "uint256",
          "name": "tokenId",
          "type": "uint256"
        }
      ],
      "name": "ownerOf",
      "outputs": [
        {
          "internalType": "address",
          "name": "",
          "type": "address"
        }
      ],
      "stateMutability": "view",
      "type": "function"
    },
    {
      "inputs": [
        {
          "internalType": "uint256",
          "name": "_tokenId",
          "type": "uint256"
        }
      ],
      "name": "receivePerson",
      "outputs": [],
      "stateMutability": "nonpayable",
      "type": "function"
    },
    {
      "inputs": [
        {
          "internalType": "uint8",
          "name": "perdiodToReserve",
          "type": "uint8"
        },
        {
          "internalType": "uint8",
          "name": "day",
          "type": "uint8"
        },
        {
          "internalType": "uint8",
          "name": "month",
          "type": "uint8"
        }
      ],
      "name": "reserve",
      "outputs": [
        {
          "internalType": "uint256",
          "name": "",
          "type": "uint256"
        }
      ],
      "stateMutability": "payable",
      "type": "function"
    },
    {
      "inputs": [
        {
          "internalType": "address",
          "name": "from",
          "type": "address"
        },
        {
          "internalType": "address",
          "name": "to",
          "type": "address"
        },
        {
          "internalType": "uint256",
          "name": "tokenId",
          "type": "uint256"
        }
      ],
      "name": "safeTransferFrom",
      "outputs": [],
      "stateMutability": "nonpayable",
      "type": "function"
    },
    {
      "inputs": [
        {
          "internalType": "address",
          "name": "from",
          "type": "address"
        },
        {
          "internalType": "address",
          "name": "to",
          "type": "address"
        },
        {
          "internalType": "uint256",
          "name": "tokenId",
          "type": "uint256"
        },
        {
          "internalType": "bytes",
          "name": "data",
          "type": "bytes"
        }
      ],
      "name": "safeTransferFrom",
      "outputs": [],
      "stateMutability": "nonpayable",
      "type": "function"
    },
    {
      "inputs": [
        {
          "internalType": "address",
          "name": "operator",
          "type": "address"
        },
        {
          "internalType": "bool",
          "name": "approved",
          "type": "bool"
        }
      ],
      "name": "setApprovalForAll",
      "outputs": [],
      "stateMutability": "nonpayable",
      "type": "function"
    },
    {
      "inputs": [
        {
          "internalType": "bytes4",
          "name": "interfaceId",
          "type": "bytes4"
        }
      ],
      "name": "supportsInterface",
      "outputs": [
        {
          "internalType": "bool",
          "name": "",
          "type": "bool"
        }
      ],
      "stateMutability": "view",
      "type": "function"
    },
    {
      "inputs": [],
      "name": "symbol",
      "outputs": [
        {
          "internalType": "string",
          "name": "",
          "type": "string"
        }
      ],
      "stateMutability": "view",
      "type": "function"
    },
    {
      "inputs": [
        {
          "internalType": "uint256",
          "name": "",
          "type": "uint256"
        }
      ],
      "name": "tokenMetadata",
      "outputs": [
        {
          "internalType": "uint8",
          "name": "period",
          "type": "uint8"
        },
        {
          "internalType": "uint8",
          "name": "day",
          "type": "uint8"
        },
        {
          "internalType": "uint8",
          "name": "month",
          "type": "uint8"
        },
        {
          "internalType": "uint256",
          "name": "amountDeposited",
          "type": "uint256"
        },
        {
          "internalType": "enum TastyToken.ReservStatus",
          "name": "status",
          "type": "uint8"
        }
      ],
      "stateMutability": "view",
      "type": "function"
    },
    {
      "inputs": [
        {
          "internalType": "uint256",
          "name": "tokenId",
          "type": "uint256"
        }
      ],
      "name": "tokenURI",
      "outputs": [
        {
          "internalType": "string",
          "name": "",
          "type": "string"
        }
      ],
      "stateMutability": "view",
      "type": "function"
    },
    {
      "inputs": [
        {
          "internalType": "address",
          "name": "from",
          "type": "address"
        },
        {
          "internalType": "address",
          "name": "to",
          "type": "address"
        },
        {
          "internalType": "uint256",
          "name": "tokenId",
          "type": "uint256"
        }
      ],
      "name": "transferFrom",
      "outputs": [],
      "stateMutability": "nonpayable",
      "type": "function"
    }
  ],
  "bytecode": {
    "object": "0x608060405266038d7ea4c6800060085567016345785d8a0000600955600f600a556000600b553480156200003257600080fd5b50604080518082018252600a8152692a30b9ba3caa37b5b2b760b11b602080830191825283518085019094526004845263151512d560e21b9084015281519192916200008191600091620000a0565b50805162000097906001906020840190620000a0565b50505062000182565b828054620000ae9062000146565b90600052602060002090601f016020900481019282620000d257600085556200011d565b82601f10620000ed57805160ff19168380011785556200011d565b828001600101855582156200011d579182015b828111156200011d57825182559160200191906001019062000100565b506200012b9291506200012f565b5090565b5b808211156200012b576000815560010162000130565b600181811c908216806200015b57607f821691505b6020821081036200017c57634e487b7160e01b600052602260045260246000fd5b50919050565b611df380620001926000396000f3fe60806040526004361061014b5760003560e01c806391dca3aa116100b6578063b88d4fde1161006f578063b88d4fde146103f6578063bb324fba14610416578063c87b56dd14610436578063e985e9c514610456578063f844ead61461049f578063ffe085b8146104b457600080fd5b806391dca3aa1461034557806395d89b411461034d57806397605ba514610362578063a22cb465146103ae578063a5fab077146103ce578063b4b45e62146103e357600080fd5b806342842e0e1161010857806342842e0e146102485780634660cbcd146102685780636352211e1461027d5780636914db601461029d5780636a7ec34e1461030157806370a082311461032557600080fd5b806301ffc9a71461015057806306fdde0314610185578063081812fc146101a7578063095ea7b3146101df57806321923e881461020157806323b872dd14610228575b600080fd5b34801561015c57600080fd5b5061017061016b366004611796565b6104c9565b60405190151581526020015b60405180910390f35b34801561019157600080fd5b5061019a61051b565b60405161017c919061180b565b3480156101b357600080fd5b506101c76101c236600461181e565b6105ad565b6040516001600160a01b03909116815260200161017c565b3480156101eb57600080fd5b506101ff6101fa366004611853565b6105d4565b005b34801561020d57600080fd5b50610216600081565b60405160ff909116815260200161017c565b34801561023457600080fd5b506101ff61024336600461187d565b6106ee565b34801561025457600080fd5b506101ff61026336600461187d565b61071f565b34801561027457600080fd5b50610216600181565b34801561028957600080fd5b506101c761029836600461181e565b61073a565b3480156102a957600080fd5b506102f06102b836600461181e565b600d6020526000908152604090208054600182015460029092015460ff80831693610100840482169362010000900482169290911685565b60405161017c9594939291906118cf565b34801561030d57600080fd5b50610317600b5481565b60405190815260200161017c565b34801561033157600080fd5b5061031761034036600461191e565b61079a565b6101ff610820565b34801561035957600080fd5b5061019a610839565b34801561036e57600080fd5b5061021661037d3660046119d6565b600c602090815260009283526040909220815180830184018051928152908401929093019190912091525460ff1681565b3480156103ba57600080fd5b506101ff6103c9366004611a38565b610848565b3480156103da57600080fd5b50610216600481565b6103176103f1366004611a74565b610857565b34801561040257600080fd5b506101ff610411366004611ab7565b610b55565b34801561042257600080fd5b506101ff61043136600461181e565b610b8d565b34801561044257600080fd5b5061019a61045136600461181e565b610e35565b34801561046257600080fd5b50610170610471366004611b33565b6001600160a01b03918216600090815260056020908152604080832093909416825291909152205460ff1690565b3480156104ab57600080fd5b50610216600381565b3480156104c057600080fd5b50610216600281565b60006001600160e01b031982166380ac58cd60e01b14806104fa57506001600160e01b03198216635b5e139f60e01b145b8061051557506301ffc9a760e01b6001600160e01b03198316145b92915050565b60606000805461052a90611b66565b80601f016020809104026020016040519081016040528092919081815260200182805461055690611b66565b80156105a35780601f10610578576101008083540402835291602001916105a3565b820191906000526020600020905b81548152906001019060200180831161058657829003601f168201915b5050505050905090565b60006105b882610f45565b506000908152600460205260409020546001600160a01b031690565b60006105df8261073a565b9050806001600160a01b0316836001600160a01b0316036106515760405162461bcd60e51b815260206004820152602160248201527f4552433732313a20617070726f76616c20746f2063757272656e74206f776e656044820152603960f91b60648201526084015b60405180910390fd5b336001600160a01b038216148061066d575061066d8133610471565b6106df5760405162461bcd60e51b815260206004820152603d60248201527f4552433732313a20617070726f76652063616c6c6572206973206e6f7420746f60448201527f6b656e206f776e6572206f7220617070726f76656420666f7220616c6c0000006064820152608401610648565b6106e98383610fa7565b505050565b6106f83382611015565b6107145760405162461bcd60e51b815260040161064890611ba0565b6106e9838383611093565b6106e983838360405180602001604052806000815250610b55565b6000818152600260205260408120546001600160a01b0316806105155760405162461bcd60e51b8152602060048201526018602482015277115490cdcc8c4e881a5b9d985b1a59081d1bdad95b88125160421b6044820152606401610648565b60006001600160a01b0382166108045760405162461bcd60e51b815260206004820152602960248201527f4552433732313a2061646472657373207a65726f206973206e6f7420612076616044820152683634b21037bbb732b960b91b6064820152608401610648565b506001600160a01b031660009081526003602052604090205490565b34600b60008282546108329190611c03565b9091555050565b60606001805461052a90611b66565b6108533383836111f7565b5050565b6000600954341115801561086d57506008543410155b6108c55760405162461bcd60e51b8152602060048201526024808201527f596f757220616d6f756e74206973206f757473696465206f6620746865206c696044820152636d69747360e01b6064820152608401610648565b60048460ff1611156109195760405162461bcd60e51b815260206004820152601f60248201527f54686520706572696f64206973206f7574206f6620746865206c696d697473006044820152606401610648565b60006109278460ff166112c5565b6109338460ff166112c5565b604051602001610944929190611c1b565b60408051601f1981840301815282825260ff88166000908152600c60205291909120909250601491610977908490611c4a565b9081526040519081900360200190205460ff1611156109e35760405162461bcd60e51b815260206004820152602260248201527f5468657265206973206e6f74206d6f726520737061636520746f207265736572604482015261766560f01b6064820152608401610648565b60ff85166000908152600c6020526040908190209051610a04908390611c4a565b90815260405190819003602001902054610a229060ff166001611c66565b60ff86166000908152600c6020526040908190209051610a43908490611c4a565b908152604051908190036020019020805460ff9290921660ff199092169190911790556000610a7160075490565b9050610a7d3382611358565b6040518060a001604052808760ff1681526020018660ff1681526020018560ff16815260200134815260200160006001811115610abc57610abc6118b9565b90526000828152600d602090815260409182902083518154928501519385015160ff908116620100000262ff0000199582166101000261ffff1990951691909216179290921792909216178155606082015160018083019190915560808301516002830180549192909160ff1916908381811115610b3c57610b3c6118b9565b0217905550506007805460010190555095945050505050565b610b5f3383611015565b610b7b5760405162461bcd60e51b815260040161064890611ba0565b610b87848484846114e3565b50505050565b6000818152600d60209081526040808320815160a081018352815460ff80821683526101008204811695830195909552620100009004841692810192909252600180820154606084015260028201549293919260808501921690811115610bf657610bf66118b9565b6001811115610c0757610c076118b9565b905250805190915060ff16600003610c615760405162461bcd60e51b815260206004820152601b60248201527f54686520746f6b656e20496420646f6573206e6f7420657869737400000000006044820152606401610648565b600081608001516001811115610c7957610c796118b9565b14610cc65760405162461bcd60e51b815260206004820152601c60248201527f546865207265736572766520697320616c72656164792074616b656e000000006044820152606401610648565b600160808201526060810151600090610cde90611516565b60008481526002602052604081205460608501519293506001600160a01b031691610d0a908490611c03565b90506000826001600160a01b03168260405160006040518083038185875af1925050503d8060008114610d59576040519150601f19603f3d011682016040523d82523d6000602084013e610d5e565b606091505b5050905080610da65760405162461bcd60e51b81526020600482015260146024820152732330b4b632b2103a379039b2b7321022ba3432b960611b6044820152606401610648565b6000868152600d602090815260409182902087518154928901519389015160ff908116620100000262ff0000199582166101000261ffff19909516919092161792909217929092161781556060860151600180830191909155608087015160028301805489949360ff1991909116908381811115610e2657610e266118b9565b02179055505050505050505050565b6060610e4082610f45565b60008281526006602052604081208054610e5990611b66565b80601f0160208091040260200160405190810160405280929190818152602001828054610e8590611b66565b8015610ed25780601f10610ea757610100808354040283529160200191610ed2565b820191906000526020600020905b815481529060010190602001808311610eb557829003601f168201915b505050505090506000610ef060408051602081019091526000815290565b90508051600003610f02575092915050565b815115610f34578082604051602001610f1c929190611c1b565b60405160208183030381529060405292505050919050565b610f3d84611533565b949350505050565b6000818152600260205260409020546001600160a01b0316610fa45760405162461bcd60e51b8152602060048201526018602482015277115490cdcc8c4e881a5b9d985b1a59081d1bdad95b88125160421b6044820152606401610648565b50565b600081815260046020526040902080546001600160a01b0319166001600160a01b0384169081179091558190610fdc8261073a565b6001600160a01b03167f8c5be1e5ebec7d5bd14f71427d1e84f3dd0314c0f7b2291e5b200ac8c7c3b92560405160405180910390a45050565b6000806110218361073a565b9050806001600160a01b0316846001600160a01b0316148061106857506001600160a01b0380821660009081526005602090815260408083209388168352929052205460ff165b80610f3d5750836001600160a01b0316611081846105ad565b6001600160a01b031614949350505050565b826001600160a01b03166110a68261073a565b6001600160a01b0316146110cc5760405162461bcd60e51b815260040161064890611c8b565b6001600160a01b03821661112e5760405162461bcd60e51b8152602060048201526024808201527f4552433732313a207472616e7366657220746f20746865207a65726f206164646044820152637265737360e01b6064820152608401610648565b826001600160a01b03166111418261073a565b6001600160a01b0316146111675760405162461bcd60e51b815260040161064890611c8b565b600081815260046020908152604080832080546001600160a01b03199081169091556001600160a01b0387811680865260038552838620805460001901905590871680865283862080546001019055868652600290945282852080549092168417909155905184937fddf252ad1be2c89b69c2b068fc378daa952ba7f163c4a11628f55a4df523b3ef91a4505050565b816001600160a01b0316836001600160a01b0316036112585760405162461bcd60e51b815260206004820152601960248201527f4552433732313a20617070726f766520746f2063616c6c6572000000000000006044820152606401610648565b6001600160a01b03838116600081815260056020908152604080832094871680845294825291829020805460ff191686151590811790915591519182527f17307eab39ab6107e8899845ad3d59bd9653f200f220920489ca2b5937696c31910160405180910390a3505050565b606060006112d2836115a7565b600101905060008167ffffffffffffffff8111156112f2576112f261194a565b6040519080825280601f01601f19166020018201604052801561131c576020820181803683370190505b5090508181016020015b600019016f181899199a1a9b1b9c1cb0b131b232b360811b600a86061a8153600a850494508461132657509392505050565b6001600160a01b0382166113ae5760405162461bcd60e51b815260206004820181905260248201527f4552433732313a206d696e7420746f20746865207a65726f20616464726573736044820152606401610648565b6000818152600260205260409020546001600160a01b0316156114135760405162461bcd60e51b815260206004820152601c60248201527f4552433732313a20746f6b656e20616c7265616479206d696e746564000000006044820152606401610648565b6000818152600260205260409020546001600160a01b0316156114785760405162461bcd60e51b815260206004820152601c60248201527f4552433732313a20746f6b656e20616c7265616479206d696e746564000000006044820152606401610648565b6001600160a01b038216600081815260036020908152604080832080546001019055848352600290915280822080546001600160a01b0319168417905551839291907fddf252ad1be2c89b69c2b068fc378daa952ba7f163c4a11628f55a4df523b3ef908290a45050565b6114ee848484611093565b6114fa8484848461167f565b610b875760405162461bcd60e51b815260040161064890611cd0565b6000612710600a54836115299190611d22565b6105159190611d41565b606061153e82610f45565b600061155560408051602081019091526000815290565b9050600081511161157557604051806020016040528060008152506115a0565b8061157f846112c5565b604051602001611590929190611c1b565b6040516020818303038152906040525b9392505050565b60008072184f03e93ff9f4daa797ed6e38ed64bf6a1f0160401b83106115e65772184f03e93ff9f4daa797ed6e38ed64bf6a1f0160401b830492506040015b6d04ee2d6d415b85acef81000000008310611612576d04ee2d6d415b85acef8100000000830492506020015b662386f26fc10000831061163057662386f26fc10000830492506010015b6305f5e1008310611648576305f5e100830492506008015b612710831061165c57612710830492506004015b6064831061166e576064830492506002015b600a83106105155760010192915050565b60006001600160a01b0384163b1561177557604051630a85bd0160e11b81526001600160a01b0385169063150b7a02906116c3903390899088908890600401611d63565b6020604051808303816000875af19250505080156116fe575060408051601f3d908101601f191682019092526116fb91810190611da0565b60015b61175b573d80801561172c576040519150601f19603f3d011682016040523d82523d6000602084013e611731565b606091505b5080516000036117535760405162461bcd60e51b815260040161064890611cd0565b805181602001fd5b6001600160e01b031916630a85bd0160e11b149050610f3d565b506001949350505050565b6001600160e01b031981168114610fa457600080fd5b6000602082840312156117a857600080fd5b81356115a081611780565b60005b838110156117ce5781810151838201526020016117b6565b83811115610b875750506000910152565b600081518084526117f78160208601602086016117b3565b601f01601f19169290920160200192915050565b6020815260006115a060208301846117df565b60006020828403121561183057600080fd5b5035919050565b80356001600160a01b038116811461184e57600080fd5b919050565b6000806040838503121561186657600080fd5b61186f83611837565b946020939093013593505050565b60008060006060848603121561189257600080fd5b61189b84611837565b92506118a960208501611837565b9150604084013590509250925092565b634e487b7160e01b600052602160045260246000fd5b60ff86811682528581166020830152841660408201526060810183905260a081016002831061190e57634e487b7160e01b600052602160045260246000fd5b8260808301529695505050505050565b60006020828403121561193057600080fd5b6115a082611837565b803560ff8116811461184e57600080fd5b634e487b7160e01b600052604160045260246000fd5b600067ffffffffffffffff8084111561197b5761197b61194a565b604051601f8501601f19908116603f011681019082821181831017156119a3576119a361194a565b816040528093508581528686860111156119bc57600080fd5b858560208301376000602087830101525050509392505050565b600080604083850312156119e957600080fd5b6119f283611939565b9150602083013567ffffffffffffffff811115611a0e57600080fd5b8301601f81018513611a1f57600080fd5b611a2e85823560208401611960565b9150509250929050565b60008060408385031215611a4b57600080fd5b611a5483611837565b915060208301358015158114611a6957600080fd5b809150509250929050565b600080600060608486031215611a8957600080fd5b611a9284611939565b9250611aa060208501611939565b9150611aae60408501611939565b90509250925092565b60008060008060808587031215611acd57600080fd5b611ad685611837565b9350611ae460208601611837565b925060408501359150606085013567ffffffffffffffff811115611b0757600080fd5b8501601f81018713611b1857600080fd5b611b2787823560208401611960565b91505092959194509250565b60008060408385031215611b4657600080fd5b611b4f83611837565b9150611b5d60208401611837565b90509250929050565b600181811c90821680611b7a57607f821691505b602082108103611b9a57634e487b7160e01b600052602260045260246000fd5b50919050565b6020808252602d908201527f4552433732313a2063616c6c6572206973206e6f7420746f6b656e206f776e6560408201526c1c881bdc88185c1c1c9bdd9959609a1b606082015260800190565b634e487b7160e01b600052601160045260246000fd5b60008219821115611c1657611c16611bed565b500190565b60008351611c2d8184602088016117b3565b835190830190611c418183602088016117b3565b01949350505050565b60008251611c5c8184602087016117b3565b9190910192915050565b600060ff821660ff84168060ff03821115611c8357611c83611bed565b019392505050565b60208082526025908201527f4552433732313a207472616e736665722066726f6d20696e636f72726563742060408201526437bbb732b960d91b606082015260800190565b60208082526032908201527f4552433732313a207472616e7366657220746f206e6f6e20455243373231526560408201527131b2b4bb32b91034b6b83632b6b2b73a32b960711b606082015260800190565b6000816000190483118215151615611d3c57611d3c611bed565b500290565b600082611d5e57634e487b7160e01b600052601260045260246000fd5b500490565b6001600160a01b0385811682528416602082015260408101839052608060608201819052600090611d96908301846117df565b9695505050505050565b600060208284031215611db257600080fd5b81516115a08161178056fea2646970667358221220141349e5bed26aab5c3d699839cb6718148dae6c18c50f161c79a5e0dd3c0b6664736f6c634300080d0033",
    "linkReferences": {}
  },
  "methodIdentifiers": {
    "FIFTH_PERIOD()": "a5fab077",
    "FIRST_PERDIOD()": "21923e88",
    "FOURTH_PERIOD()": "f844ead6",
    "SECOND_PERDIOD()": "4660cbcd",
    "THIRD_PERIOD()": "ffe085b8",
    "amountOfOwnerDeposited()": "6a7ec34e",
    "approve(address,uint256)": "095ea7b3",
    "balanceOf(address)": "70a08231",
    "countOfReserves(uint8,string)": "97605ba5",
    "getApproved(uint256)": "081812fc",
    "isApprovedForAll(address,address)": "e985e9c5",
    "name()": "06fdde03",
    "ownerDepositFound()": "91dca3aa",
    "ownerOf(uint256)": "6352211e",
    "receivePerson(uint256)": "bb324fba",
    "reserve(uint8,uint8,uint8)": "b4b45e62",
    "safeTransferFrom(address,address,uint256)": "42842e0e",
    "safeTransferFrom(address,address,uint256,bytes)": "b88d4fde",
    "setApprovalForAll(address,bool)": "a22cb465",
    "supportsInterface(bytes4)": "01ffc9a7",
    "symbol()": "95d89b41",
    "tokenMetadata(uint256)": "6914db60",
    "tokenURI(uint256)": "c87b56dd",
    "transferFrom(address,address,uint256)": "23b872dd"
  },
  "id": 22
}